:020000040800F2
:10000000E019002085260008112A0008132A00089C
:1000100043330008473300084B330008000000005A
:100020000000000000000000000000004F33000846
:100030005133000800000000533300085533000816
:100040009F2600089F2600089F2600089F2600087C
:100050009F2600089F2600089F2600089F2600086C
:100060009F2600089F2600089F2600089F2600085C
:100070009F2600089F2600089F2600089F2600084C
:100080009F2600089F2600089F2600089F2600083C
:100090009F2600089F2600089F2600089F2600082C
:1000A0009F2600089F2600089F2600089F2600081C
:1000B0009F260008C93100089F2600089F260008D7
:1000C0009F2600089F2600089F2600089F260008FC
:1000D0009F260008172A0008312E0008BD2F0008AF
:1000E0009F2600089F2600089F2600089F260008DC
:1000F0009F2600089F2600089F2600089F260008CC
:100100009F2600089F2600089F2600089F260008BB
:1001100045310008873100089F2600089F26000807
:100120009F2600089F2600089F2600089F2600089B
:1001300000F002F800F03AF80AA090E8000C8244BF
:100140008344AAF10107DA4501D100F02FF8AFF29C
:10015000090EBAE80F0013F0010F18BFFB1A43F0A5
:10016000010318479C640000BC640000103A24BFDF
:1001700078C878C1FAD8520724BF30C830C144BF0C
:1001800004680C607047000000230024002500264E
:10019000103A28BF78C1FBD8520728BF30C148BFEA
:1001A0000B6070471FB51FBD10B510BD06F0F1F90B
:1001B0001146FFF7F7FF02F042F906F00FFA03B419
:1001C000FFF7F2FF03BC06F013FA000000BF0100C6
:1001D000A0F10100FBD1704710B5044604F0800087
:1001E000802805D10022C101F84803F0CEF904E0CF
:1001F00001229103F54803F0C8F904F040004028BB
:1002000005D100224102F14803F0BFF904E00122C8
:10021000D103EE4803F0B9F904F02000202805D1FD
:1002200000220121E94803F0B0F904E0012211465F
:10023000E64803F0AAF904F01000102805D10022C6
:100240000421E24803F0A1F904E001220421DF487F
:1002500003F09BF904F00800082805D100220821CA
:10026000DA4803F092F904E001220821D74803F0AC
:100270008CF904F00400042805D100220221D4489E
:1002800003F083F904E001220221D14803F07DF953
:1002900004F00200022805D100220121CC4803F01D
:1002A00074F904E001221146C94803F06EF910BD4B
:1002B00010B5044604F01000102805D100220221D8
:1002C000C24803F062F904E001220221BF4803F0B2
:1002D0005CF904F00F00102849D2DFE800F02C0888
:1002E0000C1014181C2024283034383C40440C20B6
:1002F000FFF772FF3FE0DA20FFF76EFF3BE0F220EE
:10030000FFF76AFF37E06620FFF766FF33E0B620AD
:10031000FFF762FF2FE0BE20FFF75EFF2BE0E0203B
:10032000FFF75AFF27E0FE20FFF756FF23E0E62005
:10033000FFF752FF1FE0FC20FFF74EFF1BE03A20C3
:10034000FFF74AFF17E03E20FFF746FF13E01A20B1
:10035000FFF742FF0FE07A20FFF73EFF0BE09E2001
:10036000FFF73AFF07E08E20FFF736FF03E0FF209C
:10037000FFF732FF00BF00BF10BD08B54FF480701B
:10038000ADF8000004208DF8030000208DF8020075
:1003900069468F4803F048F841F60300ADF80000C5
:1003A00010208DF8030003208DF80200694688486C
:1003B00003F03AF86020ADF8000004208DF8030047
:1003C00000208DF802006946824803F02DF840F2C3
:1003D0008130ADF8000010208DF8030003208DF867
:1003E000020069467B4803F01FF84FF47070ADF8C7
:1003F000000004208DF8030000208DF802006946FB
:10040000724803F011F84EF23F00ADF800001020E2
:100410008DF8030003208DF8020069466B4803F055
:1004200003F84FF6F060ADF8000004208DF80300EB
:1004300000208DF802006946674802F0F5FF40F29F
:100440000310ADF8000010208DF8030003208DF894
:1004500002006946604802F0E7FF4CF20C00ADF87C
:10046000000004208DF8030000208DF8020069468A
:100470005A4802F0D9FF43F6F370ADF8000010209F
:100480008DF8030003208DF802006946534802F0FE
:10049000CBFF0320524908800120524908804CF2CA
:1004A0003F005149088040F2031050490880002065
:1004B0004F4908804A480188454803F06BF849488D
:1004C0000188444803F066F8474801883F4803F034
:1004D00061F846480188404803F05CF844480188C8
:1004E0003E4803F057F808BD10B503F0EBF84FF4A1
:1004F000803003F007F900BF312003F026F900280F
:10050000FAD002203B490860002003F080F9002067
:1005100003F08FF94FF4806003F082F94FF4E0119B
:100520004FF4803003F056F9012003F05FF900BF6B
:10053000392003F00AF90028FAD0022003F059F913
:1005400000BF03F05FF90828FBD101217D2003F0F3
:1005500027FA0121880303F030FA00214FF00060F0
:1005600003F0BDFC4FF4407003F082FC042003F064
:10057000CEFCFFF702FF10BD10B50246002002E0DE
:1005800013785840521C0B00A1F10104E1B2F7D1DD
:1005900010BD10B501220221104802F0F6FF10BD77
:1005A00010B5002202210D4802F0EFFF10BD10B57A
:1005B00001221146094802F0E8FF10BD10B50022E3
:1005C0000121064802F0E1FF10BD000000100140CB
:1005D00000080140000C01400014014000180140D7
:1005E00072000020740000207600002078000020B7
:1005F0007A0000200020024010B501225102FE487E
:1006000002F0C3FF10BD10B500224FF40071FA488C
:1006100002F0BBFF10BD10B501221102F64802F036
:10062000B4FF10BD10B500224FF48071F24802F003
:10063000ACFF10BD10B501228021EF4802F0A5FFEC
:1006400010BD10B500228021EB4802F09EFF10BDC6
:1006500010B5EA480078012801D102F0C2F912224F
:10066000E749E84805F0D2FE4FF48071E64802F011
:100670006EFFE34908704FF40071E44802F067FF31
:10068000DF4948704FF48071E04802F060FFDC49B8
:1006900088701021DE4802F05AFFD94908732021E2
:1006A000DB4802F054FFD64948734021D84802F095
:1006B0004EFFD349887308460078012807D1D549F1
:1006C00008700122C102D44802F05FFF0BE0CC4861
:1006D000007840B90020CF49087000224FF4006133
:1006E000CD4802F052FFC6484078012807D1CB49D7
:1006F000087001220103C84802F047FF0BE0C04820
:10070000407840B90020C549087000224FF480515C
:10071000C14802F03AFFBB488078012807D1B848A9
:10072000807820B9BE480078401CBD49087010BDD3
:1007300010B50446FFF73BFFBA48048005E0FFF719
:1007400087FFB648007800B903E0B6480088002863
:10075000F5D100BFB348008808B9FFF72FFF10BDDF
:1007600010B50446AF48048009E0FFF771FFA548C3
:100770008078012803D1A248807800B903E0A94815
:1007800000880028F1D100BF10BD10B50446FFF766
:1007900000FFA448048006E0FFF75AFF9F48007856
:1007A000012800D103E09F4800880028F4D100BF51
:1007B00010BD70B505460C469A48058006E0FFF767
:1007C00047FF96480078A04200D103E09548008892
:1007D0000028F4D100BF70BD10B5002210218E4852
:1007E00002F0D3FE002220218B4802F0CEFE10BD85
:1007F00010B500221021884802F0C7FE01222021F6
:10080000854802F0C2FE32208649088008E0FFF7E2
:100810001FFF7B48807918B97948C07900B103E09F
:10082000804800880028F2D100BFFFF7D5FF10BD37
:1008300010B501221021784802F0A7FE00222021E5
:10084000754802F0A2FE32207649088008E0FFF7E2
:10085000FFFE6B48807918B16948C07900B903E0A0
:10086000704800880028F2D100BFFFF7B5FF10BD27
:1008700001228A400243D0B2704701228A4090434D
:10088000704710B504461021674803F029FA00BFED
:100890008021654803F092FA0028F9D02146624889
:1008A00003F01EFA00BF80215F4803F087FA00289A
:1008B000F9D010BD2DE9F04105462C462778641C7F
:1008C00039462046FFF758FE80461021564803F06F
:1008D00007FA00BF8021544803F070FA0028F9D0CD
:1008E0000221514803F0FCF900BF80214E4803F07B
:1008F00065FA0028F9D000261BE0207810280AD1DC
:100900001021494803F0ECF900BF8021464803F06C
:1009100055FA0028F9D02178434803F0E1F900BFE7
:100920008021414803F04AFA0028F9D0641C701C69
:10093000C6B2BE42E1DB10213B4803F0D1F900BF53
:100940008021394803F03AFA0028F9D003213648CB
:1009500003F0C6F900BF8021334803F02FFA0028C6
:10096000F9D04146304803F0BBF900BF80212E4842
:1009700003F024FA0028F9D0BDE8F08110B5044650
:1009800001202A4908700020FFF792FC0020FFF7A1
:1009900023FC00224FF480711D4802F0F6FD322046
:1009A00004F0FCF9FFF754FE01221102184802F08E
:1009B000ECFD322004F0F2F9FFF74AFE104800780F
:1009C00018B910480078012804D06220E070112086
:1009D000FFF76EFC0A48407818B90A4840780128A9
:1009E00004D06120E0701220FFF762FC0448807898
:1009F00000BB044880781BE0000C0140230000206D
:100A0000E0010020F2010020000801400010014038
:100A10000014014050000020001801404F00002049
:100A2000510000202A00002000380140260000204C
:100A3000012804D06320E0701320FFF739FC002068
:100A4000FD490870FD490870FD49087010BD10B5DA
:100A50000446FC48007B20B9207940F00200207158
:100A600003E0207900F0FD002071F648407B20B9BA
:100A7000207940F00800207103E0207900F0F700B1
:100A80002071F048807B20B9207940F080002071EF
:100A900003E0207900F07F0020711221012005F091
:100AA0005EFB0020E84948711420E84908800EE008
:100AB000FFF7CEFDE4484079A02808D1E2488079CC
:100AC000122804D1E048007C802800D103E0DF48F0
:100AD00000880028ECD100BFDC480088E0B9DC4881
:100AE000007800F0100020B1207940F01000207153
:100AF00003E0207900F0EF002071D548007800F085
:100B0000200020B1207940F00100207120E0207900
:100B100000F0FE0020711BE0CB48C07A00F010000E
:100B200020B1207940F01000207103E0207900F01E
:100B3000EF002071C448C07A00F0200020B1207975
:100B400040F00100207103E0207900F0FE002071E8
:100B50001221022005F003FB0020BE494871142039
:100B6000BA4908800EE0FFF773FDBA484079A02823
:100B700008D1B8488079122804D1B648007C802872
:100B800000D103E0B14800880028ECD100BFAF4895
:100B90000088E0B9B048007800F0100020B120795A
:100BA00040F02000207103E0207900F0DF00207188
:100BB000A948007800F0200020B1207940F004001E
:100BC000207120E0207900F0FB0020711BE0A1489B
:100BD000C07A00F0100020B1207940F02000207190
:100BE00003E0207900F0DF0020719A48C07A00F01D
:100BF000200020B1207940F00400207103E020792A
:100C000000F0FB0020718F48807820B9607900F0F7
:100C1000FE01617103E0607940F001016171864875
:100C20000078012804D1207940F04000207103E0D1
:100C3000207900F0BF00207110BD10B50A2004F02B
:100C4000ADF8FFF705FD00224FF48071834802F0F4
:100C50009CFC0A2004F0A2F8FFF7FAFC0122110222
:100C60007E4802F092FC0A2004F098F810BD10B5FE
:100C700004460120724908700020FFF719FB00208C
:100C8000FFF7AAFAFFF7D9FF6E48007840B9744819
:100C90000078012804D1207900F0FE00207108E0DE
:100CA000207940F0010020716220E0701120FFF7F0
:100CB000FFFA6448407840B969484078012804D177
:100CC000207900F0FD00207108E0207940F002005A
:100CD00020716120E0701220FFF7EAFA594880780D
:100CE00040B95F488078012804D1207900F0FB00EA
:100CF000207108E0207940F0040020716320E0704A
:100D00001320FFF7D5FA207900F0DF0020710020D2
:100D10004949087000224FF48051524802F035FCD6
:100D2000002049494871887108741321012005F099
:100D300016FA4FF4E170454908800EE0FFF788FC91
:100D400041484079A02808D13F488079132804D130
:100D50003D48007C802800D103E03C480088002802
:100D6000ECD100BF00203849C877384800880028F7
:100D700045D00846C07900F0010020B1607940F00C
:100D80000101617103E0607900F0FE0161712E489C
:100D9000C07900F0020020B1607940F00201617179
:100DA00003E0607900F0FD0161712748C07900F02F
:100DB000040020B1607940F00401617103E06079C2
:100DC00000F0FB0161712048C07A00F0100020B1F2
:100DD000607940F00801617103E0607900F0F7018B
:100DE00061711948C07A00F0200020B1607940F0AC
:100DF0001001617103E0607900F0EF016171002082
:100E000014494871887108741321022005F0A7F96C
:100E10004FF4E1700D49088026E0FFF719FC0D48FA
:100E20004079A02820D10B48807913281CD109488B
:100E3000007C802818D11BE04F00002050000020CB
:100E400026000020E0010020640100202A0000208C
:100E50006200002084010020630000200014014093
:100E6000F201002000180140FB4800880028D4D17E
:100E700000BF0020F949C877F748008898B30846B2
:100E8000C07900F0010020B1A07940F00101A1710A
:100E900003E0A07900F0FE01A171F048C07900F0F4
:100EA000020020B1A07940F00201A17103E0A07915
:100EB00000F0FD01A171E948C07900F0040020B103
:100EC000A07940F00401A17103E0A07900F0FB01DA
:100ED000A171E248C07A00F0100028B1A07940F07A
:100EE0000801A17104E011E0A07900F0F701A171FF
:100EF000DA48C07A00F0200020B1A07940F010015B
:100F0000A17103E0A07900F0EF01A1710020D449A4
:100F10000870D4490870D449087010BD10B5044653
:100F2000FFF796FB2046FFF792FD10BD10B5CF48A6
:100F30000078012826D1CE48007800F01000F0B9E2
:100F4000CC48007801281DD1C6480078D0B90220CD
:100F5000C44908706021012005F001F94FF4967032
:100F6000BD49088006E0FFF773FBBE480078012802
:100F700000D103E0B84800880028F4D102E0042042
:100F8000B8490870B9480078022825D1BA480078D5
:100F900000F01000E8B9B748007801281CD1B1482A
:100FA0000078C8B90220AF490870602105F0D7F871
:100FB0004FF49670A849088006E0FFF749FBA9485E
:100FC0000078012800D103E0A34800880028F4D16C
:100FD00002E00420A349087010BD70B506460C4617
:100FE000012E06D0022E74D0032E73D0042E72D19F
:100FF00057E200259A48007800286DD1994800787A
:1010000001285DD19B480078012822D100BF1DE056
:1010100001220221994802F0B8FA01211420FFF7B9
:10102000C8FB8F480078012805D10022022193488F
:1010300002F0ABFA0CE000220221904802F0A5FA7F
:101040004FF4FA70FFF7C2F8681CC5B2032DDFDB5E
:1010500070E06021012005F082F84FF496707E491F
:10106000088028E0FFF7F4FA7E480078012822D1B2
:1010700000251DE001220221804802F086FA0121AC
:101080001420FFF796FB76480078012805D100224E
:1010900002217A4802F079FA0CE000220221774816
:1010A00002F073FA4FF4FA70FFF790F8681CC5B2BB
:1010B000032DDFDB00BF684800880028D2D139E06B
:1010C0006021012005F04BF84FF4967062490880CA
:1010D0002CE090E0A6E12DE286E0FFF7B9FA614846
:1010E0000078012822D100251DE001220221634859
:1010F00002F04BFA01212820FFF75BFB58480078EB
:10110000012805D1002202215C4802F03EFA0CE0E1
:1011100000220221594802F038FA4FF4FA70FFF722
:1011200055F8681CC5B2032DDFDB00BF4A480088B4
:101130000028D2D14B4800786B2806D10021A1713C
:101140006520A0706B20E070F4E1464800786D28BF
:1011500006D10021A1716520A0706D20E070E9E149
:1011600044480078012821D14FF496703A4908800C
:101170003C48007802280CD106E0FFF769FA3948AC
:101180000078022800D003E0334800880028F4D11A
:1011900000BF3148008818B132480078012805D0D6
:1011A0000021A1716520A0704220E0703448407891
:1011B000012812D12848008808B1032D06DB002140
:1011C000A1716520A0704220E07013E00121A1719F
:1011D0007320A0700020E0700CE00121A171732049
:1011E000A0700020E07005E07720A0700320E07080
:1011F0000021A1719EE1002519480078002878D1CE
:1012000018480078012876D11A480078012839D189
:1012100000BF1DE001220221184802F0B6F90121A9
:101220002820FFF7C6FA0E480078012805D10022D1
:101230000221124802F0A9F90CE0002202210F4815
:1012400002F0A3F94FF4FA70FEF7C0FF681CC5B2B4
:10125000032DDFDB85E000002A0000208401002050
:101260004F000020500000202600002052000020E7
:10127000620000204E0000206300002000180140A2
:10128000E00100206021022004F069FF4FF4967015
:10129000FA49088028E0FFF7DBF9F94800780128CF
:1012A00022D100251DE001220221F64802F06DF94D
:1012B00001211420FFF77DFAF3480078012805D1B9
:1012C00000220221EF4802F060F90CE00022022126
:1012D000EC4802F05AF94FF4FA70FEF777FF681CF9
:1012E000C5B2032DDFDB00BFE44800880028D2D15F
:1012F00037E090E0FFE76021022004F030FF4FF478
:101300009670DE49088028E0FFF7A2F9DC480078F3
:10131000012822D100251DE001220221D94802F036
:1013200034F901211420FFF744FAD7480078012846
:1013300005D100220221D34802F027F90CE0002257
:101340000221D04802F021F94FF4FA70FEF73EFF77
:10135000681CC5B2032DDFDB00BFC8480088002829
:10136000D2D1C74800786C2806D10021A171652030
:10137000A0706C20E070DDE0C14800786E2806D1D6
:101380000021A1716520A0706E20E070D2E0BF48FE
:101390000078012821D14FF49670B8490880B848E8
:1013A000007802280CD106E0FFF752F9B448007823
:1013B000022800D003E0B14800880028F4D100BF23
:1013C000AE48008818B1AE480078012805D0002149
:1013D000A1716520A0704220E070AD4840780128DE
:1013E00012D1A648008808B1032D06DB0021A171A7
:1013F0006520A0704220E07013E00121A1717320EC
:10140000A0700020E0700CE00121A1717320A07099
:101410000020E07005E07720A0700320E07000213C
:10142000A17187E0032598480078012832D11AE09D
:1014300001221146934802F0A8F800219620FFF7F8
:10144000B8F9002201218F4802F09FF88B480088EC
:1014500040B98D480078012804D14FF4FA70FEF7A6
:10146000B5FE00E004E02800A5F10101CDB2DFD116
:1014700000BF8548007830B90121A1717320A070A8
:101480000020E0700CE00021A1716520A0704020D8
:10149000E07005E07720A0700120E0700021A171CC
:1014A00048E003257848007801283CD124E0012257
:1014B0005102784802F069F801221146714802F0A1
:1014C00064F8C820FFF74CF9002201216D4802F0B2
:1014D0005CF800224FF400716E4802F056F867483D
:1014E000008840B968480078012804D14FF4FA70A8
:1014F000FEF76CFE00E004E02800A5F10101CDB28A
:10150000D5D100BF6048007830B90121A1717320A6
:10151000A0700020E0700CE00021A1716520A07097
:101520004020E07005E07720A0700120E0700021ED
:10153000A17100BF00BF70BD70B5044600205649C0
:101540000870FFF785F800224FF480514D4802F0F3
:101550001CF800204C4908705049087050494871E7
:10156000504948711321012004F0F9FD1321022094
:1015700004F0F5FD01225102464802F006F801226E
:101580000221404802F001F805212820FFF711F957
:10159000002202213B4801F0F8FF00224FF40071C5
:1015A0003C4801F0F2FF3D480178A171012211464B
:1015B000344801F0EAFF642003F0F0FB002201212F
:1015C000304801F0E2FF2046FFF7D8F92F480078B5
:1015D00002281CD143F698203349088012E0FFF717
:1015E00037F82F484079A0280CD12D48807913284E
:1015F00008D12C484079A02804D12A4880791328A2
:1016000000D103E0284800880028E8D100BF244822
:101610004079A02815D122488079132811D120487B
:10162000C07900F0010018B16B20E0701449087017
:101630001B48C07900F0010018B16D20E07010491E
:10164000087018484079A02815D1164880791328C9
:1016500011D11448C07900F0010018B16C20E0707D
:10166000074908700F48C07900F0010018B16E20DA
:10167000E0700349087000251FE000002A000020E8
:1016800050000020001801404F0000204E000020B4
:10169000E0010020000C0140520000205100002019
:1016A00064010020840100204C0000200020FE493D
:1016B0004855FE494855681CC5B2142DF6DB00207C
:1016C000F949C877F949C877FEF7C2FF00224FF4FD
:1016D0008051F74801F059FF1221012004F03FFD2D
:1016E0001221022004F03BFD1420F249088000BFC3
:1016F000F04800880028FBD1EB484079A02818D199
:10170000E9488079122814D1E748007C802810D15C
:10171000E548C07AE8490870E348C07A00F0100054
:1017200010B10420E5490870607900F0FD01617195
:1017300005E06620E070607940F002016171DB48ED
:101740004079A02818D1D9488079122814D1D748D7
:10175000007C802810D1D548C07AD9490870D34878
:10176000C07A00F0100010B10420D44908706079EC
:1017700000F0FB01617105E06720E070607940F0E6
:10178000040161710020CF49087070BD10B5044696
:10179000062C7DD2DFE804F0876B511D3703002251
:1017A0001021C94801F0F1FE01222021C64801F0B4
:1017B000ECFE01221146C54801F0E7FE012202219C
:1017C000C34801F0E2FE01221146C14801F0DDFEEE
:1017D0006AE001221021BC4801F0D7FE002220213E
:1017E000B94801F0D2FE01221146B84801F0CDFE01
:1017F00001220221B64801F0C8FE01221146B44878
:1018000001F0C3FE50E001221021AF4801F0BDFEFF
:1018100001222021AC4801F0B8FE00220121AB4892
:1018200001F0B3FE01220221A94801F0AEFE01221F
:101830001146A74801F0A9FE36E001221021A24876
:1018400001F0A3FE012220219F4801F09EFE01220B
:1018500011469E4801F099FE002202219C4801F0A9
:1018600094FE012211469A4801F08FFE1CE00122ED
:101870001021954801F089FE01222021924801F0B3
:1018800084FE01221146914801F07FFE012200E012
:1018900009E002218E4801F078FE002201218C48E7
:1018A00001F073FE00E000BF00BF10BDF0B58BB0CB
:1018B00005460E461746FE2486A103C9CDE901015F
:1018C000A91EC8B2FFF762FF03A9522004F0F4F981
:1018D0000446BCB11920814908800EE0FEF7B8FE2D
:1018E00004F027FA04F01FFA04F010FA03A95220BA
:1018F00004F0E2F9044604B903E0784800880028BF
:10190000ECD100BF19207549088000BFFEF7A0FE8A
:1019100003A804F099F9044604B903E06F4800886D
:101920000028F3D100BF19206C49088000BF03A82C
:1019300004F051F9044604B903E06848008800281F
:10194000F5D100BF19206549088000BFFEF780FE71
:1019500003AB01AA3146602004F006F9044604B93D
:1019600003E05E4800880028F0D100BF32205B49C8
:10197000088000BFFEF76CFE3946304604F07AF866
:10198000044604B903E0554800880028F2D100BF9E
:1019900020460BB0F0BDF0B58BB005460E4617469D
:1019A000FE244CA103C9CDE90101A91EC8B2FFF76D
:1019B000EDFE03A9522004F07FF90446BCB11920C2
:1019C000464908800EE0FEF743FE04F0B2F904F049
:1019D000AAF904F09BF903A9522004F06DF904461A
:1019E00004B903E03D4800880028ECD100BF19206D
:1019F0003A49088000BFFEF72BFE03A804F024F943
:101A0000044604B903E0354800880028F3D100BF3C
:101A100019203249088000BFFEF71AFE03A804F01F
:101A2000DAF8044604B903E02C4800880028F3D112
:101A300000BF19202949088000BFFEF709FE03AB4B
:101A400001AA3146602004F08FF8044604B903E08F
:101A5000224800880028F0D100BF32201F490880AA
:101A600000BFFEF7F5FD3946304604F02DF8044678
:101A700004B903E0194800880028F2D100BF2046CD
:101A80000BB0F0BD70B505460E46FE24A91EC8B2C7
:101A9000FFF77CFE3146522004F00EF904468CB369
:101AA00019200E49088028E06401002084010020EC
:101AB000001801402A000020620000205000002091
:101AC000630000204F00002000100140000C014086
:101AD00000140140FFFFFFFFFFFF00006600002031
:101AE00004F027F904F01FF904F010F931465220F0
:101AF00004F0E2F8044604B903E0FE480088002838
:101B0000EED100BF1920FB49088000BF304604F029
:101B10009BF8044604B903E0F64800880028F5D194
:101B200000BF1920F349088000BF304604F053F885
:101B3000044604B903E0EF4800880028F5D100BF4F
:101B4000204670BD70B500243521EB4804F0A3FC9D
:101B5000EA48007801286FD1E9490870E94800781F
:101B600097286AD016DC852868D00BDC822851D0F3
:101B700003DC40B3812878D129E083285FD0842812
:101B8000F9D187E0863806286FD2DFE800F0E26EF0
:101B9000FAF9F8F7E52869D00CDCA02867D004DC56
:101BA000982872D09928E6D125E2E3286ED0E4285F
:101BB000E1D1AAE2E6286AD0E72869D0E82868D00F
:101BC000E928D8D192E3CC48FEF774FE10E2CD4864
:101BD0000078C94948700020C8700846FFF7ACFC7F
:101BE000C548FFF79BF9C448C07830B16520C249A9
:101BF00088700220C449087005E07320BE498870CF
:101C00000120C14908700620BB4908700846FEF74C
:101C100051FEF6E3BB480078B74948700846FFF725
:101C20007DF97320B44988700020C87005200870C1
:101C30000846FEF73FFEE4E3F0E3DAE16AE0B1488C
:101C40000078AD4948700020C8700846FFF774FC62
:101C5000A948FFF763F9A848C07848B16520A649AC
:101C600088700220A849087008E0C9E389E2FEE113
:101C70007320A14988700120A349087006209E495D
:101C800008700846FEF716FEBBE3B3E102E2ACE2E1
:101C9000DFE219E39B4800789749487099484078FB
:101CA000012803D097484078022822D195484078EF
:101CB000012801D19549087092484078022801D145
:101CC000924908708F4948788B49FFF786F98A480E
:101CD000FFF724F988488078732806D100208649C8
:101CE000C8700120884908700BE0022086490870FE
:101CF00007E06520804988703120C8700220824941
:101D0000087006207C490870FFF710F97A48FEF742
:101D1000D1FD76E37B480078774948700320FFF7D0
:101D20005CF97548FFF7FAF873488078732806D194
:101D300000207149C87001207349087002E0022038
:101D40007149087006206C4908700846FEF7B2FD1C
:101D500057E36C480078684948700420FFF73DF964
:101D60006548FFF7DBF86448807873280AD10020C3
:101D70006149C87001206449087006E010E1A9E0DB
:101D80002FE009E002206049087006205A490870D7
:101D90000846FEF78FFD34E3574D2D1D5948007856
:101DA000291F4870732088700020C870002405E047
:101DB0005748005D28706D1C601CC4B2082CF7D316
:101DC000002405E05348005D28706D1C601CC4B2FF
:101DD000072CF7D31220484908700846FEF76AFD21
:101DE0000FE3484800784449487000204A49487148
:101DF0004A49487143484078012803D04148407817
:101E0000022858D13F494878612104F0A8F93D489B
:101E10004078012827D10020414908706420FEF74E
:101E2000D5F93D484079902803D13B488079612815
:101E300007D039484079A1280CD1374880796128EA
:101E400008D173202C4988700020C87001202E49C9
:101E5000087038E06520284988704B20C87002203F
:101E6000294908702FE000202E4908706420FEF7F1
:101E7000ADF92A484079902803D128488079612813
:101E800007D026484079A1280CD1244880796128C0
:101E900008D17320184988700020C87001201A49A1
:101EA000087010E06520144988704B20C87002202B
:101EB0001549087007E065200F4988703120C87007
:101EC00001201149087003200B4908700846FEF7ED
:101ED000F1FC96E20B4800780749487009484078C1
:101EE000012803D00748407802284AD105484078A5
:101EF000012819E066000020EE00002064000020A8
:101F00005B000020A40100205600002052000020A9
:101F1000000000200800002064010020840100204F
:101F2000600000206100002015D1F948007828B930
:101F30006520F84988704A20C8702AE07320F54966
:101F400088700020C870F44800780871F248417821
:101F5000F04841711DE0F148007828B96520ED494D
:101F600088704A20C87014E07320EA498870002005
:101F7000C870EB4800780871E9484178E54841713C
:101F800007E06520E34988703120C8700220E549E8
:101F900008700520DF4908700846FEF78BFC30E228
:101FA000E1480078DB494870DF484078012803D0D9
:101FB000DD48407802280DD1DB494878622104F0E1
:101FC000CEF87320D34988700020C8700120D5490D
:101FD000087007E06520CF4988703120C870022062
:101FE000D04908700320CB4908700846FEF762FC10
:101FF00007E206E205E2CC480078C6494870CA48C4
:10200000407803280BD0C8484078042807D0C64839
:102010004078052803D0C4484078062818D1C24922
:102020004878BC4A121D0121FFF740FCB949C8702D
:102030000846C07828B9732088700120B949087013
:102040000EE06520B34988700220B649087007E0A9
:102050006520B04988703120C8700220B1490870ED
:102060001120AC4908700846FEF724FCC9E1AE48CF
:102070000078A8494870732088700020C870AA486A
:102080004078AA4908700320A24908700846FEF764
:1020900011FCB6E1A44800789E494870A2484078F7
:1020A00003280BD0A0484078042807D09E484078E9
:1020B000052803D09C484078062817D19A4A917881
:1020C0005078D21CFFF767FC9249C8700846C07868
:1020D00028B9732088700120924908700EE06520AD
:1020E0008C49887002208F49087007E06520894973
:1020F00088703120C87002208A4908700320854901
:1021000008700846FEF7D6FB7BE1874800788149D6
:1021100048708548407803280BD0834840780428CD
:1021200007D081484078052803D07F4840780628AA
:1021300018D17D4A91785078764A121DFFF7B6FB88
:102140007449C8700846C07828B973208870012087
:10215000744908700EE065206E498870022071494C
:10216000087007E065206B4988703120C870022034
:102170006C4908701320674908700846FEF79AFBFF
:102180003FE1694800786349487067484078032810
:102190000BD065484078042807D06348407805286C
:1021A00003D061484078062810D15A48C07830B929
:1021B00073205849887001205A4908700EE0652044
:1021C0005449887002205749087007E0652051493A
:1021D00088703120C87002205249087003204D4990
:1021E00008700846FEF766FB0BE14F480078494946
:1021F00048704D48407803280BD04B48407804285D
:1022000007D049484078052803D047484078062839
:1022100010D14048C07830B973203E498870012001
:10222000404908700EE065203A49887002203D4917
:10223000087007E06520374988703120C870022097
:10224000384908703320334908700846FEF732FBDE
:10225000D7E0354800782F49487033484078032844
:102260000BD031484078042807D02F484078052803
:1022700003D02D484078062817D12B4948782549A6
:10228000091DFFF7FFFB2349C8700846C07828B92D
:10229000732088700120234908700EE065201D49D5
:1022A000887002201F49087007E06520194988706E
:1022B0003120C87002201B49087009201549087098
:1022C0000846FEF7F7FA9CE0174800781149487075
:1022D0000846FEF7CCFC73200E4988700020C870B9
:1022E000062008700846FEF7E5FA8AE00E480078F6
:1022F0000849487000200E494871887108741621F9
:10230000012003F02CFF14200A49088023E000007C
:1023100060000020EE0000205C0000206100002032
:102320005E00002056000020A40100204E00002086
:10233000640100202A000020FEF78AF94E48407907
:10234000A02808D14C488079162804D14A48007E3C
:10235000802800D103E0494800880028ECD100BF64
:1023600000204549C8774548008850B1002406E060
:102370004149E01D095C42480155601CC4B2102C63
:10238000F6DB00203F49487188710874162102204D
:1023900003F0E5FE1420394908800EE0FEF758F9F5
:1023A00038484079A02808D136488079162804D1C9
:1023B0003448007E802800D103E03048008800289F
:1023C000ECD100BF00202F49C8772C48008858B1B5
:1023D000102407E0A4F109002A49095C28480155A6
:1023E000601CC4B2202CF5DB73202549091F8870BE
:1023F0000020C870232008700846FEF75BFA00E052
:1024000000BF00BF002404E000201F490855601CE5
:10241000C4B23C2CF8DB00201C49087070BD10B51C
:1024200003F094F903F085FC03F07DFC0A2002F030
:10243000B5FC03F06BFC0A2002F0B0FC10BD0120DB
:102440001349087013490870002013490870134994
:102450000870FEF749F802F0A3FE02F087FE10486C
:10246000FFF76AF8FFF7DBFF02F0EBFF03E0FEF790
:10247000EFF8FFF767FBFAE7640100202A0000206D
:10248000F200002084010020A4010020640000204C
:1024900056000020230000204F0000207000002084
:1024A000230100200CB50020019000906C480068CA
:1024B00040F480306A49086000BF6948006800F451
:1024C000003000900198401C0190009818B90198C4
:1024D000B0F5A06FF1D16248006800F4003010B18F
:1024E0000120009001E0002000900098012843D1D5
:1024F0005C48006840F010005A49086008460068CF
:1025000020F0030008600846006840F00200086000
:102510005348406852494860084640684860084649
:10252000406840F4806048600846406820F47C10B1
:1025300048600846406840F4E81048600846006873
:1025400040F08070086000BF4548006800F00070EF
:102550000028F9D04248406820F003004049486014
:102560000846406840F00200486000BF3C484068B0
:1025700000F00C000828F9D10CBD10B5FFF792FF50
:1025800010BD10B53648006840F0010034490860BD
:1025900008464068344908403149486008460068A8
:1025A000324908402E4908600846006820F480201F
:1025B00008600846406820F4FE0048604FF41F00A1
:1025C0008860FFF7DAFF4FF000602949086010BD0E
:1025D00010B5002100200022214B5B6803F00C01A4
:1025E00021B1042906D0082928D107E0214B224C2B
:1025F000236027E01F4B204C236023E0184B5B68CF
:1026000003F47010164B5B6803F48032022303EB73
:10261000904022B9194B4343174C23600DE0104BF7
:102620005B6803F4003323B1144B4343124C236023
:1026300003E0104B4343104C236003E00D4B0E4C62
:10264000236000BF00BF064B5B68C3F303130C4C51
:10265000E15C094B1B68CB40074C236010BD0000B8
:1026600000100240002002400000FFF8FFFFF6FECD
:1026700008ED00E000127A007C00002000093D0017
:10268000800000200948804709480047FEE7FEE730
:10269000FEE7FEE7FEE7FEE7FEE7FEE7FEE7FEE712
:1026A00004480549054A064B704700008325000889
:1026B00031010008E0130020E0190020E01500209F
:1026C000E015002010B50446BE48844208D101211F
:1026D000801401F07FF90021A01401F07BF916E0CD
:1026E000B948844208D10121001401F080F9002189
:1026F000201401F07CF90AE0B448844207D101219A
:10270000C01301F074F90021E01301F070F910BD5D
:1027100010B50022028802F441520B884C882343F2
:102720008C882343CC8823430C8923434C8923433F
:102730008C892343CC8923431A430280838B4FF235
:10274000FF74234083830B8A038210BD2DE9F04F71
:1027500085B005460C464FF0000902274FF00008EF
:102760004FF0010B0026B246A88B4FF24001084003
:10277000A88302202884B5F81C90A068022801D103
:1027800000BF38E0A08810B94FF0010B01E04FF016
:10279000020B8D48854200D100E000BF684601F081
:1027A00092F8DDF800A0E088B0F5007F0AD14FEA8A
:1027B0001A2000EB80004000A168B0FBF1F0401D42
:1027C00086B20BE04FEA4B10BAFBF0F000EB800052
:1027D0004000A168B0FBF1F0401D86B20A20B6FBB4
:1027E000F0F606F00108A6EB0800C0F34F074FF61D
:1027F000FF7000EA0828022F01DBFF2F02DD02270D
:102800004FF00008E08840EA080038432884A08898
:10281000A1890843618808432188084340F4006087
:1028200040EA0909A5F81C9005B0BDE8F08F002129
:10283000018041808180C180018141818181C1818C
:102840000721018270470021018041808180C18081
:102850000221816000218181704721B1028842F00C
:102860004002028004E002884FF6BF731A400280E3
:10287000704721B1828B42F48062828304E0828BB4
:102880004FF6FF331A408283704730B5002400238F
:102890000C110125A540ABB21AB185881D43858076
:1028A00002E085889D43858030BD1AB183880B4343
:1028B000838002E083888B438380704781817047E7
:1028C0000146888970474FF6FF62914204D0028822
:1028D00042F48072028004E002884FF6FF631A40DF
:1028E0000280704721B1828842F00402828004E0B5
:1028F00082884FF6FB731A408280704702884FF23D
:10290000FF731A40028002880A43028070470188E0
:1029100041F480510180704721B1028842F4005295
:10292000028004E002884DF6FF731A40028070476F
:1029300002460020012901D0108B00E0908A7047E8
:102940000146088A7047B1F5804F04D1028842F4ED
:102950008042028004E002884BF6FF731A40028036
:1029600070470246002013890B400BB1012000E0A4
:1029700000207047CA4302817047F0B5024600202C
:1029800000240023002501F00F070126BE40B4B249
:102990000B1101269E40B3B2968806EA03051689FC
:1029A000264016B10DB1012000E00020F0BD10B5A9
:1029B000002201F00F040123A3409AB2D343038104
:1029C00010BD00000030014000380040003C0040D5
:1029D0000E49086070470D49486070470B49886090
:1029E00070474AF6AA200949086070474CF6CC4067
:1029F00006490860704701460020044AD2680A4030
:102A00000AB1012000E000207047000000300040C3
:102A1000704700BFFEE72DE9F0414021FC4801F07E
:102A2000DAF940F22551FA4801F0DEF900286ED0BB
:102A3000F74801F059F9F749F74A12788854F748EE
:102A40000078012804D0022875D0032874D13AE117
:102A5000F0480078102871D1EE484078042814D14D
:102A6000002404E00020EB490855601C84B2EA48C9
:102A700000788442F6DDFF20E74908700420FDF766
:102A800000FF0120E549087066E0E248407802282E
:102A900011D1002404E00020DE490855601C84B2F6
:102AA000DD4800788442F6DDFF20DB490870022013
:102AB000DA49087050E0D7484078052811D1002441
:102AC00004E00020D3490855601C84B2D248007845
:102AD0008442F6DDFF20D04908700120D0490870FB
:102AE0003AE0CC484078102812D1012404E00020BC
:102AF000C8490855601C84B2C74800788442F6DD96
:102B00000020C54908700120C449087024E07CE118
:102B1000C148007801281FDD002404E00020BD49E1
:102B20000855601C84B2BC4800788442F6DDFF2062
:102B3000B949087010E010E060E1FFE7002404E00C
:102B40000020B4490855601C84B2B3480078844220
:102B5000F6DDFF20B049087050E141F28830B149FC
:102B60000880AC480078102815D1AA48407802287F
:102B700011D1002404E00020A6490855601C84B24D
:102B8000A54800788442F6DDFF20A34908700220A2
:102B9000A249087096E09F480078102818D19D48F7
:102BA0004078042814D1002404E0002099490855F5
:102BB000601C84B2984800788442F6DDFF20964974
:102BC00008700420FDF75DFE01209449087079E04B
:102BD00091480078801E8F49085C102859D18E4892
:102BE0000078401E085C032853D18B480078801E73
:102BF00084B2002609E08748005D102802D1701CCD
:102C0000C6B200E003E0601E84B2002CF3DC00BF1B
:102C100006F00100002855D0002400250DE07D4875
:102C2000405D102801D1681CC5B27A48405D7E49DC
:102C30000855601C84B2681CC5B277480078801EB5
:102C4000A842ECDCE1B27848FDF796FC07467148F3
:102C500071490978405CB84206D01520FDF711FE95
:102C600001206E49087005E00620FDF70AFE0320EA
:102C70006A490870002404E0002066490855601C79
:102C800084B2654800788442F6DDFF20624908700E
:102C900018E061480078462814DD5F480078642811
:102CA00010DA002404E000205A490855601C84B260
:102CB000594800788442F6DDFF205749087001200A
:102CC000564908709AE05348007810287ED1514840
:102CD000407805281DD10120514908704F490870DE
:102CE000002404E000204B490855601C84B24A4887
:102CF00000788442F6DD002405E04B48005D4B4936
:102D00000855601C84B23C2CF7DBFF204249087058
:102D100073E040484078022811D1002404E00020EC
:102D20003C490855601C84B23B4800788442F6DD7B
:102D3000FF20394908700220384908705DE03548A5
:102D40004078042814D1002404E0002031490855BB
:102D5000601C84B2304800788442F6DDFF202E49A2
:102D600008700420FDF78DFD01202C49087044E017
:102D700028484078102811D1012404E0002025497A
:102D80000855601C84B2244800788442F6DD002097
:102D9000214908700320214908702EE01E48007860
:102DA00001282ADD002404E000201A490855601C8F
:102DB00084B2194800788442F6DDFF201649087075
:102DC0001520FDF75EFD0120144900E001E00870C8
:102DD00013E0002404E000200E490855601C84B272
:102DE0000D4800788442F6DDFF200B49087015205D
:102DF000FDF747FD01200949087000BF00BF0648E4
:102E00000078401C0449087000BFBDE8F081000054
:102E10000038014004020020900000205B000020E8
:102E2000640000202E00002004030020A4010020E4
:102E30002DE9F04101240025002600274021FE480D
:102E400000F0C9FF40F22551FB4800F0CDFF0028FB
:102E50007ED0F94800F048FFF849897FF74A50547E
:102E60001046807F401C114688770846807F401EB0
:102E7000085C80286DD109E0F048807F001BEF4995
:102E8000085C7F2800D006E0681CC5B2200004F171
:102E90000101CCB2F0D100BF05F00100002879D1CA
:102EA000E6480078E6490870012401260DE0E34871
:102EB000005D7F2801D1601CC4B2E048005DE0499C
:102EC0008855601CC4B2701CC6B2DC48807FA0422A
:102ED000EDDC012505E0DA48405D3844C7B2681CE6
:102EE000C5B2B01EA842F6DCD549085CB8420CD089
:102EF000002404E00020D2490855601CC4B2142C00
:102F0000F8DB0020CD49887743E0002404E000206E
:102F1000CA490855601CC4B2142CF8DB0120C8490A
:102F2000C8770020C5498877C5488079602811D1C5
:102F3000C3484079A1280DD1C148007A012809D1A0
:102F4000BF48C079BF4908700020BF49087020E021
:102F500032E01FE0BA48807960281AD1B848407939
:102F6000A12816D1B648007A98B9B548C079B549B4
:102F70000870B5480078401CB349087008460078CE
:102F8000022803DD0520B149087002E00020AF49A6
:102F900008700027AA484079A1280DD1A848807957
:102FA000612809D1A648C079A9490870A448007AC7
:102FB00048700120A7490870BDE8F0812DE9F04173
:102FC00001240025002600274021A34800F003FF2C
:102FD00040F22551A04800F007FF00287ED09E480F
:102FE00000F082FE9D49897F9C4A50541046807FA4
:102FF000401C114688770846807F401E085C802868
:1030000048D109E09548807F001B9449085C7F28DF
:1030100000D006E0681CC5B2200004F10101CCB26A
:10302000F0D100BF05F00100002877D18B4800786F
:103030008B490870012401260DE08848005D7F2837
:1030400001D1601CC4B28548005D85498855601C6B
:10305000C4B2701CC6B28148807FA042EDDC01255D
:1030600005E07F48405D3844C7B2681CC5B2B01E59
:10307000A842F6DC7A49085CB8420CD0002404E08F
:10308000002077490855601CC4B2142CF8DB0020DE
:103090007249887742E0002404E000206F49085517
:1030A000601CC4B2142CF8DB01206D49C8770020E5
:1030B0006A4988776A488079602810D168484079E1
:1030C000A1280CD16648007A012808D16448C0794B
:1030D000644908700020644908701FE030E06048CF
:1030E000807960281AD15E484079A12816D15C48C1
:1030F000007A98B95A48C0795A4908705A480078F5
:10310000401C5949087008460078022803DD052054
:103110004E49087002E000204C4908705048407940
:10312000A1280DD14E488079612809D14C48C07939
:103130004E4908704A48007A487001204C4908708E
:10314000BDE8F08110B54021434800F044FE40F254
:103150002551414800F048FEA0B13F4800F0C4FDB1
:103160004449087008460078401C087008460178F9
:10317000394800F0B5FD00BF8021374800F01EFE41
:103180000028F9D010BD10B540213B4800F023FEC7
:1031900040F22551384800F027FEA0B1364800F033
:1031A000A3FD3649087008460078401C08700846A0
:1031B0000178314800F094FD00BF80212E4800F0D6
:1031C000FDFD0028F9D010BD10B501212C4801F0FB
:1031D000C7FD2C48007802281CD12B48008828B154
:1031E00029480088401E2849088013E01520FDF773
:1031F00048FB012023490870002404E000202349F3
:103200000855601C84B2224800788442F6DDFF2015
:103210001F4908701F48008820B11E480088401EC2
:103220001C4908801C48008820B11B480088401EAB
:1032300019490880194833E0004400404003002049
:103240006401002062000020910000205000002056
:103250005C00002060000020004800406003002067
:103260008401002063000020920000205E00002006
:1032700061000020930000200050004094000020D6
:10328000000400405B0000202E000020040200200B
:10329000900000202A0000204C0000205600002052
:1032A000007801281BD12C48008840B964202A49A5
:1032B000088001221103294800F067F909E0264837
:1032C0000088322805D100224FF48051234800F0B5
:1032D0005CF921480088401E1F49088028E02048EA
:1032E000007802281BD11C48008840B932201A49B6
:1032F000088001221103194800F047F909E0164837
:103300000088192805D100224FF48051134800F09D
:103310003CF911480088401E0F49088008E0104819
:10332000007828B900224FF480510C4800F02DF9A4
:103330000C48008820B10B480088401E09490880CD
:1033400010BD00BFFEE700BFFEE700BFFEE770470D
:103350007047704770470000680000200008014077
:10336000560000206600002010B50446CC48844278
:1033700008D10121042000F02DFB0021042000F0E1
:1033800029FB46E0C748844208D10121082000F00B
:1033900021FB0021082000F01DFB3AE0C2488442D6
:1033A00008D10121102000F015FB0021102000F0B1
:1033B00011FB2EE0BD48844208D10121202000F0FD
:1033C00009FB0021202000F005FB22E0B8488442E0
:1033D00008D10121402000F0FDFA0021402000F03A
:1033E000F9FA16E0B348844208D10121802000F0A8
:1033F000F1FA0021802000F0EDFA0AE0AE488442A4
:1034000007D10121801500F0E5FA0021A01500F098
:10341000E1FA10BD10B50121084600F0DBFA0021E9
:10342000012000F0D7FA10BD2DE9F0410246002539
:103430000026002000230024002791F803C00CF090
:103440000F0591F803C00CF0100CBCF1000F03D075
:1034500091F802C04CEA050591F800C0BCF1000FDC
:1034600031D0146800202BE04FF0010C0CFA00F36F
:10347000B1F800C00CEA03069E4220D183004FF051
:103480000F0C0CFA03F7BC4305FA03FC4CEA0404E6
:1034900091F803C0BCF1280F06D14FF0010C0CFAD3
:1034A00000FCC2F814C00AE091F803C0BCF1480F58
:1034B00005D14FF0010C0CFA00FCC2F810C0401C02
:1034C0000828D1D31460B1F800C0BCF1FF0F34DD7F
:1034D000546800202EE000F1080C4FF0010808FAB3
:1034E0000CF3B1F800C00CEA03069E4221D1830020
:1034F0004FF00F0C0CFA03F7BC4305FA03FC4CEA3F
:10350000040491F803C0BCF1280F05D100F1080CA8
:1035100008FA0CF8C2F8148091F803C0BCF1480F07
:1035200007D100F1080C4FF0010808FA0CF8C2F8B6
:103530001080401C0828CED35460BDE8F0814FF6BF
:10354000FF710180022181700421C1707047024621
:10355000002093680B400BB1012000E00020704771
:103560000146886880B2704702460020D3680B404D
:103570000BB1012000E0002070470146C86880B20E
:10358000704701617047416170470AB1016100E015
:1035900041617047C16070474FF480320A438261D5
:1035A0008161826182698269704702460020434BD3
:1035B00018684FF68073184040EA021008433F4BEA
:1035C000186070473E49C8617047F0B50A4600234D
:1035D00000240021002500F00046B6F1004F02D182
:1035E000364EF16901E0354E7168C0F3034583B290
:1035F00000F44016B6F5401F08D121F070612F4E3F
:10360000766826F070662D4F7E6012E000F480161A
:10361000B6F5801F06D1032606FA05F4A14341F052
:10362000706106E0460D360103FA06F6B14341F03B
:10363000706122B1460D360103FA06F6314300F0FF
:103640000046B6F1004F02D11C4EF16101E01B4E65
:103650007160F0BD30B500228B071C0F0F2303FAF9
:1036600004F2164B08338C1053F824309343134C58
:1036700008348D1044F8253023468C1053F824303C
:103680008C07240F00FA04F423430C4C08348D10EB
:1036900044F8253030BD0A49DC310860704700002D
:1036A00000080140000C01400010014000140140DE
:1036B00000180140001C01400020014000000140B2
:1036C00000002042DF48006840F00100DD4908604A
:1036D00008464068DC490840DA4948600846006806
:1036E000DA490840D74908600846006820F480207D
:1036F00008600846406820F4FE0048604FF41F0050
:1037000088607047CF49096821F48031CD4A116043
:103710001146096821F480211160B0F5803F03D083
:10372000B0F5802F0ED106E0C649096841F480311A
:10373000C44A116007E0C349096841F4A021C14AA5
:10374000116000E000BF00BF704710B501460022C5
:10375000002300204A11012A02D1BA4C236806E056
:10376000022A02D1B74C236A01E0B64C636A01F029
:103770001F02012494401C400CB1012000E00020F5
:1037800010BD38B5002000900024002500BF312076
:10379000FFF7DBFF05460098401C00900098B0F54D
:1037A000A06F01D0002DF2D03120FFF7CEFF08B17D
:1037B000012400E00024204638BD01460020A14A33
:1037C000106820F0F80040EAC10010607047A0497E
:1037D00008607047024600209A4B586820F47C101D
:1037E00042EA01031843974B5860704798490866AE
:1037F000704701460020934A506820F003000843B8
:10380000506070478F48406800F00C0070470146D8
:1038100000208C4A506820F0F00008435060704748
:1038200001460020874A506820F4E0600843506059
:10383000704701460020834A506820F4605040EAF7
:10384000C1005060704729B17E4A527A02437D4BD5
:103850005A7204E07B4A527A82437A4B5A7270471A
:103860007B49D8310860704701460020754A50688E
:1038700020F440400843506070470021714A2032D4
:103880001170704A82F82010012802D004280AD151
:1038900004E001216B4A2032117005E00521694ADC
:1038A0002032117000E000BF00BF70476949086016
:1038B00070476449096A0143624A11627047654969
:1038C00044390860704730B50021002200240023ED
:1038D0005C4D6D6805F00C0121B1042905D0082963
:1038E00023D105E05C4D056022E05B4D05601FE0E3
:1038F000544D6D6805F47012524D6D6805F48034B6
:10390000022505EB92421CB9544D554305600BE06E
:103910004C4D6D6805F400351DB1504D55430560A3
:1039200002E04D4D5543056002E04B4D056000BF80
:1039300000BF444D6D6805F0F0010909484D6B5C0E
:103940000568DD4045603F4D6D6805F4E061090A9A
:10395000434D6B5C4568DD4085603A4D6D6805F40C
:103960006051C90A3E4D6B5C4568DD40C560354D10
:103970006D6805F44041890B3A4D6B5CC568B5FB39
:10398000F3F5056130BD29B12E4A526902432D4B32
:103990005A6104E02B4A526982432A4B5A617047AC
:1039A00029B1284A92690243264B9A6104E0254ACC
:1039B00092698243234B9A61704729B1214AD269A7
:1039C0000243204BDA6104E01E4AD26982431D4B58
:1039D000DA61704729B11B4AD2680243194BDA6099
:1039E00004E0184AD2688243164BDA60704729B166
:1039F000144A12690243134B1A6104E0114A126916
:103A00008243104B1A617047124940390860704771
:103A10000F49C86470470B49C87170470948406A2C
:103A200040F0807007494862704701460020054A0F
:103A300092680A400AB1012000E000207047014965
:103A400088727047001002400000FFF8FFFFF6FE8A
:103A5000000042428004424200127A0000093D0008
:103A600095000020A500002010B50446FB488442C4
:103A700009D101218803FFF7ADFF00214FF48040F9
:103A8000FFF7A8FF32E0F648844209D1012148043B
:103A9000FFF7ADFF00214FF40030FFF7A8FF25E04E
:103AA000F048844209D101218804FFF7A0FF0021DA
:103AB0004FF48020FFF79BFF18E0EB48844209D1C8
:103AC0000121C804FFF793FF00214FF40020FFF706
:103AD0008EFF0BE0E548844208D101210805FFF77D
:103AE00086FF00214FF48010FFF781FF10BD2DE904
:103AF000F04786B005460E460024A24600BFA14608
:103B00000027B08900B100BF2F462C8A4CF6FF7009
:103B10000440F08804432C82AC894EF6F310044034
:103B2000B08831890843718908430443AC81AC8A69
:103B30004FF6FF400440B0890443AC8201A8FFF770
:103B4000C2FEC648874202D1DDF810A001E0DDF8D0
:103B50000CA0A88900F4004040B10AEBCA0000EBB9
:103B60000A1031684900B0FBF1F807E00AEBCA001F
:103B700000EB0A1031688900B0FBF1F86420B8FB53
:103B8000F0F004012009642101FB1089A88900F4E8
:103B9000004040B1322000EBC900B0FBF1F000F072
:103BA0000700044308E0322000EB09106421B0FB59
:103BB000F1F000F00F0004432C8106B0BDE8F0875F
:103BC0004FF41651016000218180C18001810C21D8
:103BD000418100218181704710B502460020108A82
:103BE0004FF2FF0318400B884C8823438C882343F3
:103BF000CC8823431843108210BD002101804180EE
:103C00008180C180704721B1828942F40052828153
:103C100004E082894DF6FF731A4082817047F0B547
:103C20000346002400260025002040F66A17B9420A
:103C300000D100BF1846C1F3421401F01F0601274E
:103C400007FA06F5012C01D10C3004E0022C01D159
:103C5000103000E014301AB107682F43076002E00B
:103C60000768AF430760F0BD1AB1838A0B438382B4
:103C700002E0838A8B4383827047028A4FF6F07397
:103C80001A400282028A0A430282704782894FF2F6
:103C9000FF731A40828182890A438281704721B171
:103CA000828942F00202828104E082894FF6FD732C
:103CB0001A4082817047028A4FF6DF731A400282EF
:103CC000028A0A430282704721B1028A42F480428A
:103CD000028204E0028A4BF6FF731A4002827047A8
:103CE000C1F308028280704701468888C0F308004B
:103CF0007047818941F0010181817047028BD2B206
:103D00000283028B42EA012202837047028B02F493
:103D10007F420283028B0A430283704721B1828A69
:103D200042F02002828204E0828A4FF6DF731A405A
:103D30008282704721B1828A42F01002828204E0BE
:103D4000828A4FF6EF731A408282704721B1828ACD
:103D500042F00802828204E0828A4FF6F7731A402A
:103D60008282704721B1828942F40042828103E05D
:103D70008289C2F30E028281704721B1828A42F4A5
:103D80000062828204E0828A4FF2FF731A408282CC
:103D90007047828A4FF6FB731A408282828A0A43F6
:103DA0008282704721B1828A42F00202828204E05C
:103DB000828A4FF6FD731A408282704702460020C5
:103DC000B1F5007F00D100BF13880B400BB101207B
:103DD00000E00020704701F40072B2F5007F00D1CE
:103DE00000BFCA430280704770B50246002400231A
:103DF0000025002040F66A16B14200D100BFC1F391
:103E0000421501F01F03012606FA03F3012D02D12A
:103E10009689334006E0022D02D1168A334001E034
:103E2000968A33400C12012606FA04F416883440B0
:103E300013B10CB1012000E0002070BD10B50022CC
:103E4000002340F66A14A14200D100BF0A120124E7
:103E50009440A3B2DC43048010BD00000038014050
:103E60000044004000480040004C0040005000402A
:103E700031490143314A1160704770B50021002378
:103E80000F22C47804B32D4C246804F4E064C4F514
:103E9000E064210AC1F10403CA40447804FA03F142
:103EA0008478144021430901254C0678A1550478F3
:103EB00004F01F050124AC4005786D11AD0005F13B
:103EC000E025C5F8004109E0047804F01F0501244D
:103ED000AC401C4D0678761145F8264070BD1A4A54
:103EE0000A400243154B1B1F1A60704739B1134A31
:103EF000121D12680243114B1B1D1A6006E00F4A87
:103F0000121D126882430D4B1B1D1A607047042856
:103F100008D14FF0E021096941F004014FF0E0229F
:103F2000116107E04FF0E021096921F004014FF031
:103F3000E0221161704700000000FA050CED00E07E
:103F400000E400E080E100E080FFFF1F10B50446C0
:103F5000FE48844208D10121C014FFF73BFD002137
:103F6000E014FFF737FDC4E0B4F1804F08D1012120
:103F70000846FFF73CFD00210120FFF738FDB8E0BF
:103F8000F348844208D101210220FFF730FD0021CF
:103F90000220FFF72CFDACE0EE48844208D101215D
:103FA0000420FFF724FD00210420FFF720FDA0E0FE
:103FB000E948844208D101210820FFF718FD0021BB
:103FC0000820FFF714FD94E0E448844208D1012161
:103FD0001020FFF70CFD00211020FFF708FD88E0FE
:103FE000DF48844208D101212020FFF700FD002195
:103FF0002020FFF7FCFC7CE0DA48844208D1012154
:104000004014FFF7E7FC00216014FFF7E3FC70E0C9
:10401000D548844209D10121C804FFF7DBFC002107
:104020004FF40020FFF7D6FC63E0D048844209D16A
:1040300001210805FFF7CEFC00214FF48010FFF7A7
:10404000C9FC56E0CA48844209D101214805FFF75E
:10405000C1FC00214FF40010FFF7BCFC49E0C5484B
:10406000844208D101214020FFF7C1FC00214020FB
:10407000FFF7BDFC3DE0C048844208D1012180200B
:10408000FFF7B5FC00218020FFF7B1FC31E0BB4811
:10409000844208D101218015FFF7A9FC0021A01559
:1040A000FFF7A5FC25E0B648844209D101210804A8
:1040B000FFF790FC00214FF48030FFF78BFC18E0F5
:1040C000B048844209D101214804FFF783FC002154
:1040D0004FF40030FFF77EFC0BE0AB48844208D180
:1040E00001218804FFF776FC00214FF48020FFF7C0
:1040F00071FC10BD00220288944B98420ED0994B5F
:1041000098420BD0B0F1804F08D0914B984205D027
:10411000904B984202D0904B984204D14FF68F7347
:104120001A404B881A438D4B984207D08C4B9842CB
:1041300004D04FF6FF431A40CB881A4302808B8885
:1041400083850B880385814B98420BD0854B984221
:1041500008D08B4B984205D08A4B984202D08A4BAC
:10416000984201D10B7A038601238382704770B590
:10417000002400220023058C4FF6FE76354005848E
:10418000028C8388048B4FF68F752C40B51E2C4013
:104190000D882C43751E2A400D892A434D882A43D9
:1041A0006A4DA8420BD06F4DA84208D0744DA8426A
:1041B00005D0744DA84202D0734DA84213D14FF6DA
:1041C000F7752A404D892A434FF6FB752A408D88A2
:1041D0002A434FF6FF652B404FF6FF552B408D8944
:1041E0002B43CD892B4383800483CD88858602842D
:1041F00070BD70B5002400220023058C4FF6EF76C9
:1042000035400584028C8388048B48F6FF752C406A
:104210004FF6FF452C400D884FF6FF7606EA052540
:104220002C434FF6DF752A400D8906EA05152A430F
:104230004D8806EA05152A43444DA84202D0494D4F
:10424000A8421DD14FF67F752A404D894FF6FF7663
:1042500006EA05152A434FF6BF752A408D8806EAFF
:1042600005152A434FF6FF352B404FF2FF752B40C3
:104270008D8906EA85052B43CD8906EA85052B4302
:1042800083800483CD880587028470BD70B50024C7
:1042900000220023058C4FF6FF6635400584028C12
:1042A0008388848B4FF68F752C404FF6FC752C401D
:1042B0000D882C434FF6FF552A400D894FF6FF76A7
:1042C00006EA05252A434D8806EA05252A431F4D9F
:1042D000A84202D0234DA8421DD14FF2FF752A40BB
:1042E0004D894FF6FF7606EA05252A434FF6FF353E
:1042F0002A408D8806EA05252A434EF6FF752B4095
:104300004DF6FF752B408D8906EA05152B43CD89A7
:1043100006EA05152B4383808483CD888587028434
:1043200070BD70B5002200230024058C4EF6FF7688
:1043300035400584038C8488828B48F6FF752A40BB
:104340004FF6FF452A400D8820E00000002C014078
:104350000004004000080040000C00400010004035
:104360000014004000340140004C01400050014066
:104370000054014000180040001C00400020004094
:104380000040014000440140004801404FF6FF76E4
:1043900006EA05252A434DF6FF752B400D8906EAEE
:1043A00005352B434D8806EA05352B43FA4DA842C7
:1043B00002D0FA4DA84208D14BF6FF752C408D89EA
:1043C0004FF6FF7606EA85152C4384808283CD88DC
:1043D000A0F84050038470BD828B4FF2FF331A4027
:1043E0008283828B4FF6FF7303EA01231A43828391
:1043F0007047F0B50C461546002200210026078CB8
:104400004EF6FF7C07EA0C070784828B018C4FF67F
:10441000FF7707EA043640F6FF473A404FF6FF774A
:1044200007EA05273A434FF6FF7707EA03373A438F
:10443000D94FB8420ED0D94FB8420BD0B0F1804F0F
:1044400008D0D74FB84205D0D64FB84202D0D64F89
:10445000B84206D14DF6FF77394046F480573943CC
:1044600005E047F6FF57394044F4805739438283CB
:104470000184F0BD828B4FF6F3731A408283828BE6
:104480000A4382837047F0B50C461546002200218E
:104490000026078C4FF6FF6C07EA0C070784828B17
:1044A000018C4FF6FF7707EA04264FF60C773A4067
:1044B0004FF6FF7707EA03172F433A43B64FB84248
:1044C0000ED0B64FB8420BD0B0F1804F08D0B44FE9
:1044D000B84205D0B34FB84202D0B34FB84206D16C
:1044E0004FF6FF57394046F48077394305E04FF2E5
:1044F000FF57394044F48077394382830184F0BD0B
:10450000028B4FF2FF331A400283028B4FF6FF7388
:1045100003EA01231A4302837047F0B50C4615469F
:10452000002200210026078C4FF6EF7C07EA0C07DB
:104530000784028B018C4FF6FF7707EA041640F6DA
:10454000FF473A404FF6FF7707EA03373A434FF603
:10455000FF7707EA05273A438F4FB8420ED08F4FB7
:10456000B8420BD0B0F1804F08D08D4FB84205D083
:104570008C4FB84202D08C4FB84206D14FF6DF774D
:10458000394046F01007394305E04FF65F77394070
:1045900044F01007394302830184F0BD028B4FF6CB
:1045A000F3731A400283028B0A4302837047F0B50B
:1045B0000C46154600220021068C4FF6FE773E4041
:1045C0000684028B018C4FF60C7632407E1C06EA84
:1045D00003162E433243704EB0420ED06F4EB0429F
:1045E0000BD0B0F1804F08D06D4EB04205D06D4E6B
:1045F000B04202D06C4EB04206D14FF6FD7631404B
:1046000044F00106314305E04FF6F576314044F0C1
:104610000106314302830184F0BD70B505460C46A6
:104620005D4885420ED05D4885420BD0B5F1804F84
:1046300008D05B48854205D05A48854202D05A4886
:10464000854200D100E000BF208850B92389A288AC
:1046500061882846FFF7ABFFE1882846FFF79EFFF9
:1046600025E0208804280AD12389A2886188284669
:10467000FFF753FFE1882846FFF742FF17E0208845
:1046800008280AD12389A28861882846FFF7FBFE03
:10469000E1882846FFF7EEFE09E02389A2886188B9
:1046A0002846FFF7A6FEE1882846FFF795FE70BD75
:1046B0002DE9F04105460C4600260127608808B91F
:1046C000022600E00026A088012801D1022700E090
:1046D00001272088A0B92389A28861882846FFF78E
:1046E00066FFE1882846FFF759FF23893A4631469D
:1046F0002846FFF712FFE1882846FFF701FF13E085
:104700002389A28861882846FFF707FFE1882846A9
:10471000FFF7F6FE23893A4631462846FFF747FF62
:10472000E1882846FFF73AFFBDE8F0810A884B8808
:104730001A438B881A43CB881A430B891A434B8937
:104740001A438B891A43A0F8442070474FF6FF7133
:10475000818000210180C180418001727047002169
:10476000018041808180C180018141818181C1813D
:104770007047002101804180012181800021C1809A
:10478000018170470021018041808180C1800181C9
:104790004181818170470000002C014000340140BC
:1047A0000004004000080040000C004021B10288D5
:1047B00042F00102028004E002884FF6FE731A40C4
:1047C0000280704731B1B0F8442042F40042A0F8B2
:1047D000442005E0B0F84420C2F30E02A0F84420C3
:1047E00070471AB183890B43838102E083898B432D
:1047F000838170478182704741EA0203A0F8483004
:1048000070471AB183890B43838102E083898B430C
:104810008381704701894FF6F8721140018170471A
:104820000A46002101894FF68F7319401143018117
:10483000704730B504460D4629462046FFF7F0FF85
:10484000208940F00700208130BD2DE9F041044669
:104850000D4616461F46602D06D13B4601223146C5
:104860002046FFF75AFE05E03B460122314620462E
:10487000FFF79DFE29462046FFF7D2FF208940F032
:1048800007002081BDE8F08130B50C460021018988
:10489000C9B24FF6FF7505EA0325154325432943A1
:1048A000018130BD2DE9F04105460E461746984678
:1048B000002443463A4631462846FFF7E5FF2C8957
:1048C0004FF6F870044044F007044FF68F70044030
:1048D00044F070042C81BDE8F081F0B504460D462B
:1048E00016461F463B46324629462046FFF7CCFF78
:1048F000208940F480402081F0BD0185828270478C
:104900000A46002101884FF68F7319401143018038
:104910007047F0B50C4615461E46002100220023C4
:104920000189028B038C4FF6F877394021434FF60B
:10493000FC473A4040F201173A434FF6DD773B40DF
:104940004FF6FF7707EA06172F433B4301810283A7
:104950000384F0BD0A460021018B4FF68F73194086
:104960001143018370470A460021018B48F6FF730B
:1049700019404FF6FF7303EA02231943018370477E
:104980000A460021818B4FF68F73194011438183B2
:1049900070470A460021818B48F6FF7319404FF695
:1049A000FF7303EA022319438183704721B1028810
:1049B00042F08002028004E002884FF67F731A40C2
:1049C0000280704721B1828842F00402828004E0B4
:1049D00082884FF6FB731A408280704721B182882B
:1049E00042F00802828004E082884FF6F7731A4092
:1049F0008280704721B1828842F00102828004E007
:104A000082884FF6FE731A40828070470A46002162
:104A1000018B4FF6F77319401143018370470A4623
:104A20000021018B4FF2FF7319404FF6FF7303EA29
:104A300002231943018370470A460021818B4FF6F8
:104A4000F77319401143818370470A460021818B17
:104A50004FF2FF7319404FF6FF7303EA0223194325
:104A6000818370470A460021018B4FF6FB73194082
:104A70001143018370470A460021018B4FF6FF3333
:104A800019404FF6FF7303EA02231943018370476D
:104A90000A460021818B4FF6FB7319401143818335
:104AA00070470A460021818B4FF6FF3319404FF6BD
:104AB000FF7303EA02231943818370470A460021EA
:104AC000018B4FF67F7319401143018370470A46EB
:104AD0000021018BC1F30E014FF6FF7303EA02239D
:104AE0001943018370470A460021818B4FF67F737B
:104AF00019401143818370470A460021818BC1F31D
:104B00000E014FF6FF7303EA0223194381837047B6
:104B10000A460021018C4FF6FD73194011430184B0
:104B200070470A460021018C4FF6F7731940114374
:104B3000018470470A460021018C4FF6DF7319404B
:104B40004FF6FF7303EA02131943018470470A46C4
:104B50000021018C4FF67F7319404FF6FF7303EA73
:104B600002131943018470470A460021018C4FF655
:104B7000FF5319404FF6FF7303EA022319430184E0
:104B800070470A460021018C4FF2FF7319404FF61F
:104B9000FF7303EA02231943018470470A46002188
:104BA000018C4DF6FF7319404FF6FF7303EA023391
:104BB00019430184704730B5002301248C40A3B20F
:104BC000048C9C430484048C02FA01F5ADB22C439E
:104BD000048430BD30B5002304248C40A3B2048C7F
:104BE0009C430484048C02FA01F5ADB22C43048486
:104BF00030BD70B50346002000241846183001254A
:104C00008D40ACB21D8CA5431D8409B1082909D182
:104C100000EB6100056825F0700505600568154327
:104C200005600EE00D1FC5F34E052844056825F408
:104C3000E045056005684FF6FF7606EA0226354333
:104C4000056070BD21B1028842F00202028004E0DA
:104C500002884FF6FD731A400280704721B1028826
:104C600042F00402028004E002884FF6FB731A400F
:104C70000280704721B1828842F08002828004E085
:104C800082884FF67F731A408280704702884FF601
:104C9000F7731A40028002880A43028070478288B4
:104CA0004FF68F731A40828082880A438280704751
:104CB00002894FF6F8731A40028102890A43028181
:104CC000704702894FF67F731A40028102890A43B6
:104CD0000281704781847047818570478186704763
:104CE0000187704781877047A0F84010704702889D
:104CF0004FF6FF431A40028002880A430280704741
:104D00000146888E70470146088F70470146888F9C
:104D100070470146B1F8400070470146888C7047E3
:104D20000146088D704702460020138A0B400BB1E4
:104D3000012000E000207047CA430282704730B56E
:104D40000246002000230024158A05EA0103958904
:104D500005EA010413B10CB1012000E0002030BDD0
:104D6000CA4302827047014601EBC1024FF0E023C3
:104D70005A6101221A6100229A6100BF4FF0E022BD
:104D8000106900F001021AB100F48032002AF5D057
:104D900000224FF0E0231A619A617047014642F207
:104DA00028324A434FF0E0235A6101221A6100225F
:104DB0009A6100BF4FF0E022106900F001021AB1C1
:104DC00000F48032002AF5D000224FF0E0231A616F
:104DD0009A61704700B587B001210420FEF7E0FD1D
:104DE00001218803FEF7DCFD01210846FEF7D8FD0E
:104DF0004FF40070ADF8180003208DF81A00182049
:104E00008DF81B0006A9DD48FEF70EFB4FF480600D
:104E1000ADF8180004208DF81B0006A9D748FEF74E
:104E200003FB4FF4614002900020ADF80C00ADF898
:104E30000E00ADF81000ADF814000C20ADF8120013
:104E400002A9CF48FEF753FE0121CD48FEF7DBFE55
:104E5000012240F22551CA48FEF7E1FE4021C84830
:104E6000FEF7B9FF4FF4C060FFF702F825208DF878
:104E7000040000208DF805008DF8060001208DF853
:104E8000070001A8FEF7F9FF07B000BD00B587B025
:104E900001210420FEF784FD01214804FEF78DFD69
:104EA00001210846FEF77CFD0420ADF81800032020
:104EB0008DF81A0018208DF81B0006A9AF48FEF7E0
:104EC000B3FA0820ADF8180004208DF81B0006A9DD
:104ED000AA48FEF7A9FA4FF4964002900020ADF8D8
:104EE0000C00ADF80E00ADF81000ADF814000C2069
:104EF000ADF8120002A9A348FEF7F9FD0121A1486F
:104F0000FEF781FE012240F225519E48FEF787FE02
:104F100040219C48FEF75FFF4FF4C060FEF7A8FFFA
:104F200026208DF8040000208DF805008DF806007D
:104F300001208DF8070001A8FEF79FFF07B000BD14
:104F400000B587B001210820FEF72AFD0121880461
:104F5000FEF733FD01210846FEF722FD4FF4806085
:104F6000ADF8180003208DF81A0018208DF81B00EA
:104F700006A98548FEF758FA4FF40060ADF818000E
:104F800004208DF81B0006A97F48FEF74DFA4FF468
:104F9000964002900020ADF80C00ADF80E00ADF880
:104FA0001000ADF814000C20ADF8120002A97748EB
:104FB000FEF79DFD01217548FEF725FE012240F216
:104FC00025517248FEF72BFE40217048FEF703FF83
:104FD0004FF4E060FEF74CFF27208DF8040000201E
:104FE0008DF805008DF8060001208DF8070001A856
:104FF000FEF743FF07B000BD00B587B001211020C8
:10500000FEF7CEFC0121C804FEF7D7FC01210846BB
:10501000FEF7C6FC4FF48060ADF8180003208DF851
:105020001A0018208DF81B0006A95948FEF7FCF954
:105030004FF40060ADF8180004208DF81B0006A99D
:105040005348FEF7F1F94FF4165002900020ADF8E6
:105050000C00ADF80E00ADF81000ADF814000C20F7
:10506000ADF8120002A94B48FEF741FD0121494865
:10507000FEF7C9FD012240F225514648FEF7CFFD5B
:1050800040214448FEF7A7FE4FF4C060FEF7F0FE53
:1050900034208DF8040000208DF805008DF80600FE
:1050A00001208DF8070001A8FEF7E7FE07B000BD5C
:1050B00000B587B001211020FEF772FC01212020ED
:1050C000FEF76EFC01210805FEF777FC012108467A
:1050D000FEF766FC4FF48050ADF8180003208DF801
:1050E0001A0018208DF81B0006A92948FEF79CF924
:1050F0000420ADF818008DF81B0006A92648FEF71D
:1051000093F94FF4165002900020ADF80C00ADF862
:105110000E00ADF81000ADF814000C20ADF8120030
:1051200002A91E48FEF7E3FC01211C48FEF76BFDB7
:10513000012240F225511948FEF771FD4021174820
:10514000FEF749FE4FF4C060FEF792FE35208DF861
:10515000040000208DF805008DF8060001208DF870
:10516000070001A8FEF789FE07B000BD10B5FFF7E4
:1051700031FEFFF78BFEFFF7E3FE10BD0008014094
:105180000038014000440040000C0140004800404D
:1051900000100140004C004000140140005000404D
:1051A0001FB501210220FEF708FC01211748FFF777
:1051B000D7FD2720ADF8080048F69F40ADF8040061
:1051C0000020ADF80A00ADF8060001A90F48FEF76F
:1051D00091FF01210D48FFF7E9FA012211460B4822
:1051E000FFF7FFFA4FF4C060FEF742FE1D208DF876
:1051F000000000208DF8010001208DF802008DF8DC
:1052000003006846FEF739FE1FBD000000040040A1
:1052100000B587B001210420FEF7C2FB012108037D
:10522000FEF7BEFBE020ADF8180018208DF81B003B
:1052300003208DF81A0006A96848FEF7F5F8E0216A
:105240006648FEF79EF90020ADF804004FF4827026
:10525000ADF806000020ADF808000220ADF80A0005
:105260000120ADF80C004002ADF80E003820ADF87A
:1052700010000020ADF812000720ADF81400012145
:105280005748FDF7EAFA01A95548FDF741FA07B07A
:1052900000BD00B587B001210820FEF781FB012188
:1052A0008803FEF78AFB4FF46040ADF81800182021
:1052B0008DF81B0003208DF81A0006A94948FEF757
:1052C000B3F80020ADF804004FF48270ADF806008A
:1052D0000020ADF80800ADF80A00ADF80C004FF45E
:1052E0000070ADF80E003820ADF810000020ADF8C9
:1052F00012000720ADF8140001213B48FDF7ADFA7C
:1053000001A93948FDF704FA07B000BD10B50446FD
:10531000334800884FF6C771084031490880084675
:1053200000882043088001212D48FDF796FA10BD22
:1053300010B504462C4800884FF6C77108402A492A
:105340000880084600882043088001212648FDF790
:1053500084FA10BD70B50446002507E0681C85B2CC
:1053600042F21070854201DDFF2070BD02211C4811
:10537000FDF7F7FA0028F1D021461948FDF79EFA0B
:1053800000BF01211648FDF7ECFA0028F9D01448B7
:10539000FDF796FAC0B2E8E770B50446002507E0CD
:1053A000681C85B242F21070854201DDFF2070BD9D
:1053B00002210D48FDF7D5FA0028F1D021460A4810
:1053C000FDF77CFA00BF01210748FDF7CAFA002863
:1053D000F9D00548FDF774FAC0B2E8E700080140CB
:1053E00000300140000C01400038004010B500249E
:1053F0001021D248FEF7C7F84FF48041D048FEF79D
:10540000C0F84FF48051CF48FEF7BBF89020FFF76B
:10541000A1FF0020FFF79EFF0020FFF79BFF002069
:10542000FFF798FFFF20FFF795FF44EA0024FF20D5
:10543000FFF790FF04431021C048FEF7A2F8204672
:1054400010BD08B501210420FEF7AAFA1020ADF81E
:1054500000008DF8030003208DF802006946B7486C
:10546000FDF7E2FF1021B548FEF78BF8FFF7D0FEFD
:10547000FFF7BCFF204608BD70B5002400BF641CC8
:10548000B4F1704F01D3FF2070BD1021AB48FEF77F
:105490007AF84FF48041AA48FEF773F84FF4805130
:1054A000A848FEF76EF80520FFF754FFFF20FFF72E
:1054B00051FF05461021A148FEF763F805F00100F1
:1054C0000028DCD100BFDFE770B505460C46164664
:1054D0000020FFF71BFFFFF7CFFF10219748FEF7D3
:1054E00052F84FF480419648FEF74BF84FF4805144
:1054F0009448FEF746F80320FFF72CFFC4F307405B
:10550000FFF728FFC4F30720FFF724FFE0B2FFF7FF
:1055100021FF04E0FF20FFF71DFF28706D1C300005
:10552000A6F101018EB2F5D110218448FEF729F8C9
:1055300070BD10B510218148FEF725F84FF4804169
:105540007F48FEF71EF84FF480517E48FEF719F8A9
:105550000620FFF7FFFE10217848FEF712F810BD75
:1055600010B50446FFF788FFFFF7E3FF10217348EB
:10557000FEF709F84FF480417148FEF702F84FF446
:1055800080517048FDF7FDFF2020FFF7E3FEC4F3D4
:105590000740FFF7DFFEC4F30720FFF7DBFEE0B2B2
:1055A000FFF7D8FE10216548FDF7EBFF10BD10B5E1
:1055B000FFF762FFFFF7BDFF10216048FDF7E3FF33
:1055C0004FF480415E48FDF7DCFF4FF480515D48A9
:1055D000FDF7D7FFC720FFF7BDFE10215748FDF7A5
:1055E000D0FF10BD2DE9F04107460D461446EEB23E
:1055F000C6F58076B44200DC26463CE0FFF73CFF6F
:10560000FFF797FF10214D48FDF7BDFF4FF4804194
:105610004B48FDF7B6FF4FF480514A48FDF7B1FF04
:105620000220FFF797FEC5F30740FFF793FEC5F38F
:105630000720FFF78FFEE8B2FFF78CFE4FF000085F
:1056400007E03878FFF786FE7F1C08F101001FFA9B
:1056500080F8B045F5DB10213848FDF792FFB442E1
:1056600000D109E03544A01B84B2FF2C02DD4FF4C9
:10567000807600E02646C1E700BFBDE8F0812DE955
:10568000F04781460F4616460020FFF73FFEC7F35E
:105690000F38C7F30B0ACAF58054A64200DA344625
:1056A00047E04FEA08314FF480522748FFF70CFFDC
:1056B000002508E00AEB05002349085CFF2800D01C
:1056C00003E0681C85B2A542F4DB00BFA54217DAEF
:1056D0004FEA0830FFF744FF002507E019F80500FE
:1056E0000AEB0501184A5054681C85B2A542F5DB47
:1056F0004FEA08314FF480521348FFF773FF04E07C
:10570000224639464846FFF76DFFB44200D111E00A
:10571000A1442744301B86B208F101001FFA80F82B
:105720004FF0000AB6F5805F02DB4FF4805400E0D2
:105730003446B6E700BFBDE8F0870000000801402E
:1057400000200140000C01408003002008B54BF20E
:105750000200ADF8000010208DF8030003208DF842
:1057600002006946FD48FDF75FFE4BF20201FB486F
:10577000FDF707FF4FF48040ADF8000048208DF89A
:1057800003006946F548FDF74FFE08BD2DE9F041DD
:1057900006460D460020F2490860F249C1F8B00102
:1057A0007E2000EA4607082412E0C7F3C010EC4947
:1057B000083108600120EB49C1F8B4017806070EF2
:1057C0000020E74908600A20FFF7CDFA601EC4B246
:1057D000002CEADC082412E0C5F3C010E0490831CF
:1057E00008600120DF49C1F8B4016806050E0020F9
:1057F000DB4908600A20FFF7B6FA601EC4B2002C2D
:10580000EADC0120D649091F0860D649C1F8B40175
:10581000BDE8F0812DE9F041064600250020D04981
:105820000860D049C1F8B0017E2000EA460040F08F
:105830008007082412E0C7F3C010C9490831086086
:105840000120C849C1F8B4017806070E0020C449F8
:1058500008600A20FFF787FA601EC4B2002CEADC59
:10586000082410E00120BE4908606806050EBD4806
:10587000D0F838012843C5B2002008600A20FFF79D
:1058800072FA601EC4B2002CECDC0120B449091F7E
:105890000860B449C1F8B4012846BDE8F08170B58C
:1058A00005460C4600262846FFF7B4FF064646EAA2
:1058B00004012846FFF76AFF70BD70B505460C4627
:1058C00000262846FFF7A6FF064626EA04012846DA
:1058D000FFF75CFF70BD2DE9FE4F064688469146F6
:1058E0009A46DDF830B0FE20029000200190009032
:1058F0000C2E06D00E2E09D11220019010200090FF
:1059000005E0772001903020009000E000BF00BF4C
:10591000019840F080010220FFF738FF8021042029
:10592000FFF7CBFF00210120FFF730FF80210A2085
:10593000FFF7B5FF002505E018F805100920FFF76F
:1059400025FF6D1C4D45F7D331460120FFF71EFFA3
:105950000C2E03D180210D20FFF7A1FF4FF4167507
:1059600000BF0420FFF756FF04466D1E35B104F05A
:10597000010018B9009820400028F2D080210D20A5
:10598000FFF79BFF95B30620FFF744FF00F01B00D5
:1059900068BB002002900198204000F0010008B18F
:1059A000FF2002900C2E24D10A20FFF733FF04467B
:1059B0000C20FFF72FFF00F007072FB1601E07EB49
:1059C000C000CBF8000002E0E000CBF8000004B912
:1059D0000124122C00DD1224002505E00920FFF728
:1059E00019FF0AF805006D1CA542F7D301E0FE205F
:1059F000029080210C20FFF752FF00210120FFF7C9
:105A0000C5FE0298BDE8FE8F2DE9F04107468846A5
:105A1000154604210520FFF750FF00210120FFF764
:105A2000B5FE80210A20FFF73AFF002405E0395D2A
:105A30000920FFF7ABFE601CC4B24445F7DB03212D
:105A40000120FFF7A3FEFF2400BF0520FFF7E2FEC1
:105A50000646601EC4B21CB106F004000028F4D053
:105A60002220FFF7D7FE28702120FFF7D3FE6870B1
:105A7000BDE8F081F0B587B005460E4630208DF8C0
:105A800004008DF805500DF10602022101A8FFF770
:105A9000BBFF06A801AB042201A900900C20FFF770
:105AA0001AFF074667B90698902809D1002404E038
:105AB00001A8005D3055601CC4B2102CF8DB00E07A
:105AC000FE27384607B0F0BDF0B587B006460F4652
:105AD000A0208DF804008DF805600DF1060202216A
